{
  "_format": "hh-sol-artifact-1",
  "contractName": "Login",
  "sourceName": "contracts/login.sol",
  "abi": [
    {
      "anonymous": false,
      "inputs": [
        {
          "indexed": false,
          "internalType": "address",
          "name": "userAddress",
          "type": "address"
        },
        {
          "indexed": false,
          "internalType": "bool",
          "name": "isAuthenticate",
          "type": "bool"
        }
      ],
      "name": "UserAuthenticate",
      "type": "event"
    },
    {
      "anonymous": false,
      "inputs": [
        {
          "indexed": false,
          "internalType": "address",
          "name": "userAddress",
          "type": "address"
        },
        {
          "indexed": false,
          "internalType": "bool",
          "name": "userRegistered",
          "type": "bool"
        }
      ],
      "name": "UserRegistered",
      "type": "event"
    },
    {
      "anonymous": false,
      "inputs": [
        {
          "indexed": false,
          "internalType": "address",
          "name": "userAddress",
          "type": "address"
        },
        {
          "indexed": false,
          "internalType": "bool",
          "name": "isupdated",
          "type": "bool"
        }
      ],
      "name": "UserUpdatePassword",
      "type": "event"
    },
    {
      "inputs": [
        {
          "internalType": "string",
          "name": "_username",
          "type": "string"
        },
        {
          "internalType": "string",
          "name": "_password",
          "type": "string"
        }
      ],
      "name": "authenticateUser",
      "outputs": [],
      "stateMutability": "nonpayable",
      "type": "function"
    },
    {
      "inputs": [
        {
          "internalType": "string",
          "name": "_name",
          "type": "string"
        },
        {
          "internalType": "uint128",
          "name": "_mobile",
          "type": "uint128"
        },
        {
          "internalType": "string",
          "name": "_country",
          "type": "string"
        },
        {
          "internalType": "string",
          "name": "_city",
          "type": "string"
        },
        {
          "internalType": "string",
          "name": "_email",
          "type": "string"
        },
        {
          "internalType": "string",
          "name": "_address",
          "type": "string"
        },
        {
          "internalType": "string",
          "name": "_username",
          "type": "string"
        },
        {
          "internalType": "string",
          "name": "_password",
          "type": "string"
        }
      ],
      "name": "registerUser",
      "outputs": [],
      "stateMutability": "nonpayable",
      "type": "function"
    },
    {
      "inputs": [
        {
          "internalType": "string",
          "name": "newPassword",
          "type": "string"
        }
      ],
      "name": "updatePassword",
      "outputs": [],
      "stateMutability": "nonpayable",
      "type": "function"
    }
  ],
  "bytecode": "0x608060405234801561001057600080fd5b506118d3806100206000396000f3fe608060405234801561001057600080fd5b50600436106100415760003560e01c80630d2911fd146100465780634afb08a614610062578063516a54351461007e575b600080fd5b610060600480360381019061005b9190611184565b61009a565b005b61007c600480360381019061007791906112fe565b610343565b005b61009860048036038101906100939190611347565b6107e0565b005b6000803373ffffffffffffffffffffffffffffffffffffffff1673ffffffffffffffffffffffffffffffffffffffff16815260200190815260200160002060080160009054906101000a900460ff1615610129576040517f08c379a00000000000000000000000000000000000000000000000000000000081526004016101209061141c565b60405180910390fd5b60008260405160200161013c91906114ad565b60405160208183030381529060405280519060200120905060008260405160200161016791906114ad565b6040516020818303038152906040528051906020012090506040518061012001604052808b81526020018a6fffffffffffffffffffffffffffffffff168152602001898152602001888152602001878152602001868152602001838152602001828152602001600115158152506000803373ffffffffffffffffffffffffffffffffffffffff1673ffffffffffffffffffffffffffffffffffffffff168152602001908152602001600020600082015181600001908161022791906116da565b5060208201518160010160006101000a8154816fffffffffffffffffffffffffffffffff02191690836fffffffffffffffffffffffffffffffff160217905550604082015181600201908161027c91906116da565b50606082015181600301908161029291906116da565b5060808201518160040190816102a891906116da565b5060a08201518160050190816102be91906116da565b5060c0820151816006015560e082015181600701556101008201518160080160006101000a81548160ff0219169083151502179055509050507f28a24a60e275c9be5babc23ecefd3240b1fcd56ef4d3fe4818437200b55ae5ff33610321610c34565b60405161032f929190611808565b60405180910390a150505050505050505050565b6000803373ffffffffffffffffffffffffffffffffffffffff1673ffffffffffffffffffffffffffffffffffffffff16815260200190815260200160002060080160009054906101000a900460ff166103d1576040517f08c379a00000000000000000000000000000000000000000000000000000000081526004016103c89061187d565b60405180910390fd5b60008060003373ffffffffffffffffffffffffffffffffffffffff1673ffffffffffffffffffffffffffffffffffffffff1681526020019081526020016000206040518061012001604052908160008201805461042d906114f3565b80601f0160208091040260200160405190810160405280929190818152602001828054610459906114f3565b80156104a65780601f1061047b576101008083540402835291602001916104a6565b820191906000526020600020905b81548152906001019060200180831161048957829003601f168201915b505050505081526020016001820160009054906101000a90046fffffffffffffffffffffffffffffffff166fffffffffffffffffffffffffffffffff166fffffffffffffffffffffffffffffffff168152602001600282018054610509906114f3565b80601f0160208091040260200160405190810160405280929190818152602001828054610535906114f3565b80156105825780601f1061055757610100808354040283529160200191610582565b820191906000526020600020905b81548152906001019060200180831161056557829003601f168201915b5050505050815260200160038201805461059b906114f3565b80601f01602080910402602001604051908101604052809291908181526020018280546105c7906114f3565b80156106145780601f106105e957610100808354040283529160200191610614565b820191906000526020600020905b8154815290600101906020018083116105f757829003601f168201915b5050505050815260200160048201805461062d906114f3565b80601f0160208091040260200160405190810160405280929190818152602001828054610659906114f3565b80156106a65780601f1061067b576101008083540402835291602001916106a6565b820191906000526020600020905b81548152906001019060200180831161068957829003601f168201915b505050505081526020016005820180546106bf906114f3565b80601f01602080910402602001604051908101604052809291908181526020018280546106eb906114f3565b80156107385780601f1061070d57610100808354040283529160200191610738565b820191906000526020600020905b81548152906001019060200180831161071b57829003601f168201915b5050505050815260200160068201548152602001600782015481526020016008820160009054906101000a900460ff16151515158152505090508160405160200161078391906114ad565b604051602081830303815290604052805190602001208160e00181815250507f1f62ef54c32aa4fd9e4fbbe7531ddf405a6c5e57ca3b3f536959bc49146397b43360016040516107d4929190611808565b60405180910390a15050565b60008060003373ffffffffffffffffffffffffffffffffffffffff1673ffffffffffffffffffffffffffffffffffffffff1681526020019081526020016000206040518061012001604052908160008201805461083c906114f3565b80601f0160208091040260200160405190810160405280929190818152602001828054610868906114f3565b80156108b55780601f1061088a576101008083540402835291602001916108b5565b820191906000526020600020905b81548152906001019060200180831161089857829003601f168201915b505050505081526020016001820160009054906101000a90046fffffffffffffffffffffffffffffffff166fffffffffffffffffffffffffffffffff166fffffffffffffffffffffffffffffffff168152602001600282018054610918906114f3565b80601f0160208091040260200160405190810160405280929190818152602001828054610944906114f3565b80156109915780601f1061096657610100808354040283529160200191610991565b820191906000526020600020905b81548152906001019060200180831161097457829003601f168201915b505050505081526020016003820180546109aa906114f3565b80601f01602080910402602001604051908101604052809291908181526020018280546109d6906114f3565b8015610a235780601f106109f857610100808354040283529160200191610a23565b820191906000526020600020905b815481529060010190602001808311610a0657829003601f168201915b50505050508152602001600482018054610a3c906114f3565b80601f0160208091040260200160405190810160405280929190818152602001828054610a68906114f3565b8015610ab55780601f10610a8a57610100808354040283529160200191610ab5565b820191906000526020600020905b815481529060010190602001808311610a9857829003601f168201915b50505050508152602001600582018054610ace906114f3565b80601f0160208091040260200160405190810160405280929190818152602001828054610afa906114f3565b8015610b475780601f10610b1c57610100808354040283529160200191610b47565b820191906000526020600020905b815481529060010190602001808311610b2a57829003601f168201915b5050505050815260200160068201548152602001600782015481526020016008820160009054906101000a900460ff161515151581525050905060008161010001518015610bbe575083604051602001610ba191906114ad565b604051602081830303815290604052805190602001208260c00151145b8015610bf3575082604051602001610bd691906114ad565b604051602081830303815290604052805190602001208260e00151145b90507f453ba03571d7814d12083366887645536f834b7197f249a9153c32e85955d5a33382604051610c26929190611808565b60405180910390a150505050565b6000806000803373ffffffffffffffffffffffffffffffffffffffff1673ffffffffffffffffffffffffffffffffffffffff16815260200190815260200160002060405180610120016040529081600082018054610c91906114f3565b80601f0160208091040260200160405190810160405280929190818152602001828054610cbd906114f3565b8015610d0a5780601f10610cdf57610100808354040283529160200191610d0a565b820191906000526020600020905b815481529060010190602001808311610ced57829003601f168201915b505050505081526020016001820160009054906101000a90046fffffffffffffffffffffffffffffffff166fffffffffffffffffffffffffffffffff166fffffffffffffffffffffffffffffffff168152602001600282018054610d6d906114f3565b80601f0160208091040260200160405190810160405280929190818152602001828054610d99906114f3565b8015610de65780601f10610dbb57610100808354040283529160200191610de6565b820191906000526020600020905b815481529060010190602001808311610dc957829003601f168201915b50505050508152602001600382018054610dff906114f3565b80601f0160208091040260200160405190810160405280929190818152602001828054610e2b906114f3565b8015610e785780601f10610e4d57610100808354040283529160200191610e78565b820191906000526020600020905b815481529060010190602001808311610e5b57829003601f168201915b50505050508152602001600482018054610e91906114f3565b80601f0160208091040260200160405190810160405280929190818152602001828054610ebd906114f3565b8015610f0a5780601f10610edf57610100808354040283529160200191610f0a565b820191906000526020600020905b815481529060010190602001808311610eed57829003601f168201915b50505050508152602001600582018054610f23906114f3565b80601f0160208091040260200160405190810160405280929190818152602001828054610f4f906114f3565b8015610f9c5780601f10610f7157610100808354040283529160200191610f9c565b820191906000526020600020905b815481529060010190602001808311610f7f57829003601f168201915b5050505050815260200160068201548152602001600782015481526020016008820160009054906101000a900460ff161515151581525050905080610100015191505090565b6000604051905090565b600080fd5b600080fd5b600080fd5b600080fd5b6000601f19601f8301169050919050565b7f4e487b7100000000000000000000000000000000000000000000000000000000600052604160045260246000fd5b61104982611000565b810181811067ffffffffffffffff8211171561106857611067611011565b5b80604052505050565b600061107b610fe2565b90506110878282611040565b919050565b600067ffffffffffffffff8211156110a7576110a6611011565b5b6110b082611000565b9050602081019050919050565b82818337600083830152505050565b60006110df6110da8461108c565b611071565b9050828152602081018484840111156110fb576110fa610ffb565b5b6111068482856110bd565b509392505050565b600082601f83011261112357611122610ff6565b5b81356111338482602086016110cc565b91505092915050565b60006fffffffffffffffffffffffffffffffff82169050919050565b6111618161113c565b811461116c57600080fd5b50565b60008135905061117e81611158565b92915050565b600080600080600080600080610100898b0312156111a5576111a4610fec565b5b600089013567ffffffffffffffff8111156111c3576111c2610ff1565b5b6111cf8b828c0161110e565b98505060206111e08b828c0161116f565b975050604089013567ffffffffffffffff81111561120157611200610ff1565b5b61120d8b828c0161110e565b965050606089013567ffffffffffffffff81111561122e5761122d610ff1565b5b61123a8b828c0161110e565b955050608089013567ffffffffffffffff81111561125b5761125a610ff1565b5b6112678b828c0161110e565b94505060a089013567ffffffffffffffff81111561128857611287610ff1565b5b6112948b828c0161110e565b93505060c089013567ffffffffffffffff8111156112b5576112b4610ff1565b5b6112c18b828c0161110e565b92505060e089013567ffffffffffffffff8111156112e2576112e1610ff1565b5b6112ee8b828c0161110e565b9150509295985092959890939650565b60006020828403121561131457611313610fec565b5b600082013567ffffffffffffffff81111561133257611331610ff1565b5b61133e8482850161110e565b91505092915050565b6000806040838503121561135e5761135d610fec565b5b600083013567ffffffffffffffff81111561137c5761137b610ff1565b5b6113888582860161110e565b925050602083013567ffffffffffffffff8111156113a9576113a8610ff1565b5b6113b58582860161110e565b9150509250929050565b600082825260208201905092915050565b7f5573657220616c72656164792065786973747300000000000000000000000000600082015250565b60006114066013836113bf565b9150611411826113d0565b602082019050919050565b60006020820190508181036000830152611435816113f9565b9050919050565b600081519050919050565b600081905092915050565b60005b83811015611470578082015181840152602081019050611455565b60008484015250505050565b60006114878261143c565b6114918185611447565b93506114a1818560208601611452565b80840191505092915050565b60006114b9828461147c565b915081905092915050565b7f4e487b7100000000000000000000000000000000000000000000000000000000600052602260045260246000fd5b6000600282049050600182168061150b57607f821691505b60208210810361151e5761151d6114c4565b5b50919050565b60008190508160005260206000209050919050565b60006020601f8301049050919050565b600082821b905092915050565b6000600883026115867fffffffffffffffffffffffffffffffffffffffffffffffffffffffffffffffff82611549565b6115908683611549565b95508019841693508086168417925050509392505050565b6000819050919050565b6000819050919050565b60006115d76115d26115cd846115a8565b6115b2565b6115a8565b9050919050565b6000819050919050565b6115f1836115bc565b6116056115fd826115de565b848454611556565b825550505050565b600090565b61161a61160d565b6116258184846115e8565b505050565b5b818110156116495761163e600082611612565b60018101905061162b565b5050565b601f82111561168e5761165f81611524565b61166884611539565b81016020851015611677578190505b61168b61168385611539565b83018261162a565b50505b505050565b600082821c905092915050565b60006116b160001984600802611693565b1980831691505092915050565b60006116ca83836116a0565b9150826002028217905092915050565b6116e38261143c565b67ffffffffffffffff8111156116fc576116fb611011565b5b61170682546114f3565b61171182828561164d565b600060209050601f8311600181146117445760008415611732578287015190505b61173c85826116be565b8655506117a4565b601f19841661175286611524565b60005b8281101561177a57848901518255600182019150602085019450602081019050611755565b868310156117975784890151611793601f8916826116a0565b8355505b6001600288020188555050505b505050505050565b600073ffffffffffffffffffffffffffffffffffffffff82169050919050565b60006117d7826117ac565b9050919050565b6117e7816117cc565b82525050565b60008115159050919050565b611802816117ed565b82525050565b600060408201905061181d60008301856117de565b61182a60208301846117f9565b9392505050565b7f5573657220646f6573206e6f7420657869737473000000000000000000000000600082015250565b60006118676014836113bf565b915061187282611831565b602082019050919050565b600060208201905081810360008301526118968161185a565b905091905056fea26469706673582212205024af90bce326b1adf5cd99a467a9a8fd6389fb92bace48bee4f7ef34bc55ed64736f6c63430008180033",
  "linkReferences": {},
  "deployedLinkReferences": {}
}