{
  "_format": "hh-sol-artifact-1",
  "contractName": "Login",
  "sourceName": "contracts/login.sol",
  "abi": [
    {
      "anonymous": false,
      "inputs": [
        {
          "indexed": false,
          "internalType": "address",
          "name": "userAddress",
          "type": "address"
        },
        {
          "indexed": false,
          "internalType": "bool",
          "name": "isAuthenticate",
          "type": "bool"
        }
      ],
      "name": "UserAuthenticate",
      "type": "event"
    },
    {
      "anonymous": false,
      "inputs": [
        {
          "indexed": false,
          "internalType": "address",
          "name": "userAddress",
          "type": "address"
        },
        {
          "indexed": false,
          "internalType": "string",
          "name": "username",
          "type": "string"
        }
      ],
      "name": "UserRegistered",
      "type": "event"
    },
    {
      "inputs": [
        {
          "internalType": "string",
          "name": "_username",
          "type": "string"
        },
        {
          "internalType": "string",
          "name": "_password",
          "type": "string"
        }
      ],
      "name": "authenticateUser",
      "outputs": [],
      "stateMutability": "nonpayable",
      "type": "function"
    },
    {
      "inputs": [
        {
          "internalType": "string",
          "name": "_username",
          "type": "string"
        },
        {
          "internalType": "string",
          "name": "_password",
          "type": "string"
        }
      ],
      "name": "registerUser",
      "outputs": [],
      "stateMutability": "nonpayable",
      "type": "function"
    },
    {
      "inputs": [],
      "name": "userExists",
      "outputs": [
        {
          "internalType": "bool",
          "name": "",
          "type": "bool"
        }
      ],
      "stateMutability": "view",
      "type": "function"
    }
  ],
  "bytecode": "0x608060405234801561001057600080fd5b5061081f806100206000396000f3fe608060405234801561001057600080fd5b50600436106100415760003560e01c80631d2e4afd14610046578063516a543514610062578063eae6d4da1461007e575b600080fd5b610060600480360381019061005b9190610563565b61009c565b005b61007c60048036038101906100779190610563565b610253565b005b610086610381565b60405161009391906105f6565b60405180910390f35b6000803373ffffffffffffffffffffffffffffffffffffffff1673ffffffffffffffffffffffffffffffffffffffff16815260200190815260200160002060020160009054906101000a900460ff161561012b576040517f08c379a00000000000000000000000000000000000000000000000000000000081526004016101229061066e565b60405180910390fd5b60008260405160200161013e91906106ff565b60405160208183030381529060405280519060200120905060008260405160200161016991906106ff565b6040516020818303038152906040528051906020012090506040518060600160405280838152602001828152602001600115158152506000803373ffffffffffffffffffffffffffffffffffffffff1673ffffffffffffffffffffffffffffffffffffffff168152602001908152602001600020600082015181600001556020820151816001015560408201518160020160006101000a81548160ff0219169083151502179055509050507f48cac28ad4dc618e15f4c2dd5e97751182f166de97b25618318b2112aa951a2f3385604051610245929190610790565b60405180910390a150505050565b60008060003373ffffffffffffffffffffffffffffffffffffffff1673ffffffffffffffffffffffffffffffffffffffff16815260200190815260200160002060405180606001604052908160008201548152602001600182015481526020016002820160009054906101000a900460ff161515151581525050905060008160400151801561030b5750836040516020016102ee91906106ff565b604051602081830303815290604052805190602001208260000151145b801561034057508260405160200161032391906106ff565b604051602081830303815290604052805190602001208260200151145b90507f453ba03571d7814d12083366887645536f834b7197f249a9153c32e85955d5a333826040516103739291906107c0565b60405180910390a150505050565b6000806000803373ffffffffffffffffffffffffffffffffffffffff1673ffffffffffffffffffffffffffffffffffffffff16815260200190815260200160002060405180606001604052908160008201548152602001600182015481526020016002820160009054906101000a900460ff1615151515815250509050806040015191505090565b6000604051905090565b600080fd5b600080fd5b600080fd5b600080fd5b6000601f19601f8301169050919050565b7f4e487b7100000000000000000000000000000000000000000000000000000000600052604160045260246000fd5b61047082610427565b810181811067ffffffffffffffff8211171561048f5761048e610438565b5b80604052505050565b60006104a2610409565b90506104ae8282610467565b919050565b600067ffffffffffffffff8211156104ce576104cd610438565b5b6104d782610427565b9050602081019050919050565b82818337600083830152505050565b6000610506610501846104b3565b610498565b90508281526020810184848401111561052257610521610422565b5b61052d8482856104e4565b509392505050565b600082601f83011261054a5761054961041d565b5b813561055a8482602086016104f3565b91505092915050565b6000806040838503121561057a57610579610413565b5b600083013567ffffffffffffffff81111561059857610597610418565b5b6105a485828601610535565b925050602083013567ffffffffffffffff8111156105c5576105c4610418565b5b6105d185828601610535565b9150509250929050565b60008115159050919050565b6105f0816105db565b82525050565b600060208201905061060b60008301846105e7565b92915050565b600082825260208201905092915050565b7f5573657220616c72656164792065786973747300000000000000000000000000600082015250565b6000610658601383610611565b915061066382610622565b602082019050919050565b600060208201905081810360008301526106878161064b565b9050919050565b600081519050919050565b600081905092915050565b60005b838110156106c25780820151818401526020810190506106a7565b60008484015250505050565b60006106d98261068e565b6106e38185610699565b93506106f38185602086016106a4565b80840191505092915050565b600061070b82846106ce565b915081905092915050565b600073ffffffffffffffffffffffffffffffffffffffff82169050919050565b600061074182610716565b9050919050565b61075181610736565b82525050565b60006107628261068e565b61076c8185610611565b935061077c8185602086016106a4565b61078581610427565b840191505092915050565b60006040820190506107a56000830185610748565b81810360208301526107b78184610757565b90509392505050565b60006040820190506107d56000830185610748565b6107e260208301846105e7565b939250505056fea2646970667358221220553a197890cf3c181ca4cb2bfdffeb374c1ba6f9d8e47e92fe20705795fa6c5464736f6c63430008180033",
  "linkReferences": {},
  "deployedLinkReferences": {}
}