{
  "_format": "hh-sol-artifact-1",
  "contractName": "Login",
  "sourceName": "contracts/login.sol",
  "abi": [
    {
      "anonymous": false,
      "inputs": [
        {
          "indexed": false,
          "internalType": "address",
          "name": "userAddress",
          "type": "address"
        },
        {
          "indexed": false,
          "internalType": "bool",
          "name": "isAuthenticate",
          "type": "bool"
        }
      ],
      "name": "UserAuthenticate",
      "type": "event"
    },
    {
      "anonymous": false,
      "inputs": [
        {
          "indexed": false,
          "internalType": "address",
          "name": "userAddress",
          "type": "address"
        },
        {
          "indexed": false,
          "internalType": "bool",
          "name": "isExists",
          "type": "bool"
        }
      ],
      "name": "UserExists",
      "type": "event"
    },
    {
      "anonymous": false,
      "inputs": [
        {
          "indexed": false,
          "internalType": "address",
          "name": "userAddress",
          "type": "address"
        },
        {
          "indexed": false,
          "internalType": "bool",
          "name": "userRegistered",
          "type": "bool"
        }
      ],
      "name": "UserRegistered",
      "type": "event"
    },
    {
      "anonymous": false,
      "inputs": [
        {
          "indexed": false,
          "internalType": "address",
          "name": "userAddress",
          "type": "address"
        },
        {
          "indexed": false,
          "internalType": "bool",
          "name": "isupdated",
          "type": "bool"
        }
      ],
      "name": "UserUpdatePassword",
      "type": "event"
    },
    {
      "inputs": [
        {
          "internalType": "string",
          "name": "_username",
          "type": "string"
        },
        {
          "internalType": "string",
          "name": "_password",
          "type": "string"
        }
      ],
      "name": "authenticateUser",
      "outputs": [],
      "stateMutability": "nonpayable",
      "type": "function"
    },
    {
      "inputs": [
        {
          "internalType": "string",
          "name": "_name",
          "type": "string"
        },
        {
          "internalType": "uint128",
          "name": "_mobile",
          "type": "uint128"
        },
        {
          "internalType": "string",
          "name": "_country",
          "type": "string"
        },
        {
          "internalType": "string",
          "name": "_city",
          "type": "string"
        },
        {
          "internalType": "string",
          "name": "_email",
          "type": "string"
        },
        {
          "internalType": "string",
          "name": "_address",
          "type": "string"
        },
        {
          "internalType": "string",
          "name": "_username",
          "type": "string"
        },
        {
          "internalType": "string",
          "name": "_password",
          "type": "string"
        }
      ],
      "name": "registerUser",
      "outputs": [],
      "stateMutability": "nonpayable",
      "type": "function"
    },
    {
      "inputs": [
        {
          "internalType": "string",
          "name": "newPassword",
          "type": "string"
        }
      ],
      "name": "updatePassword",
      "outputs": [],
      "stateMutability": "nonpayable",
      "type": "function"
    },
    {
      "inputs": [],
      "name": "userExists",
      "outputs": [
        {
          "internalType": "bool",
          "name": "",
          "type": "bool"
        }
      ],
      "stateMutability": "nonpayable",
      "type": "function"
    }
  ],
  "bytecode": "0x608060405234801561001057600080fd5b50611955806100206000396000f3fe608060405234801561001057600080fd5b506004361061004c5760003560e01c80630d2911fd146100515780634afb08a61461006d578063516a543514610089578063eae6d4da146100a5575b600080fd5b61006b600480360381019061006691906111eb565b6100c3565b005b61008760048036038101906100829190611365565b61036c565b005b6100a3600480360381019061009e91906113ae565b610809565b005b6100ad610c5d565b6040516100ba9190611441565b60405180910390f35b6000803373ffffffffffffffffffffffffffffffffffffffff1673ffffffffffffffffffffffffffffffffffffffff16815260200190815260200160002060080160009054906101000a900460ff1615610152576040517f08c379a0000000000000000000000000000000000000000000000000000000008152600401610149906114b9565b60405180910390fd5b600082604051602001610165919061154a565b604051602081830303815290604052805190602001209050600082604051602001610190919061154a565b6040516020818303038152906040528051906020012090506040518061012001604052808b81526020018a6fffffffffffffffffffffffffffffffff168152602001898152602001888152602001878152602001868152602001838152602001828152602001600115158152506000803373ffffffffffffffffffffffffffffffffffffffff1673ffffffffffffffffffffffffffffffffffffffff16815260200190815260200160002060008201518160000190816102509190611777565b5060208201518160010160006101000a8154816fffffffffffffffffffffffffffffffff02191690836fffffffffffffffffffffffffffffffff16021790555060408201518160020190816102a59190611777565b5060608201518160030190816102bb9190611777565b5060808201518160040190816102d19190611777565b5060a08201518160050190816102e79190611777565b5060c0820151816006015560e082015181600701556101008201518160080160006101000a81548160ff0219169083151502179055509050507f28a24a60e275c9be5babc23ecefd3240b1fcd56ef4d3fe4818437200b55ae5ff3361034a610c5d565b60405161035892919061188a565b60405180910390a150505050505050505050565b6000803373ffffffffffffffffffffffffffffffffffffffff1673ffffffffffffffffffffffffffffffffffffffff16815260200190815260200160002060080160009054906101000a900460ff166103fa576040517f08c379a00000000000000000000000000000000000000000000000000000000081526004016103f1906118ff565b60405180910390fd5b60008060003373ffffffffffffffffffffffffffffffffffffffff1673ffffffffffffffffffffffffffffffffffffffff1681526020019081526020016000206040518061012001604052908160008201805461045690611590565b80601f016020809104026020016040519081016040528092919081815260200182805461048290611590565b80156104cf5780601f106104a4576101008083540402835291602001916104cf565b820191906000526020600020905b8154815290600101906020018083116104b257829003601f168201915b505050505081526020016001820160009054906101000a90046fffffffffffffffffffffffffffffffff166fffffffffffffffffffffffffffffffff166fffffffffffffffffffffffffffffffff16815260200160028201805461053290611590565b80601f016020809104026020016040519081016040528092919081815260200182805461055e90611590565b80156105ab5780601f10610580576101008083540402835291602001916105ab565b820191906000526020600020905b81548152906001019060200180831161058e57829003601f168201915b505050505081526020016003820180546105c490611590565b80601f01602080910402602001604051908101604052809291908181526020018280546105f090611590565b801561063d5780601f106106125761010080835404028352916020019161063d565b820191906000526020600020905b81548152906001019060200180831161062057829003601f168201915b5050505050815260200160048201805461065690611590565b80601f016020809104026020016040519081016040528092919081815260200182805461068290611590565b80156106cf5780601f106106a4576101008083540402835291602001916106cf565b820191906000526020600020905b8154815290600101906020018083116106b257829003601f168201915b505050505081526020016005820180546106e890611590565b80601f016020809104026020016040519081016040528092919081815260200182805461071490611590565b80156107615780601f1061073657610100808354040283529160200191610761565b820191906000526020600020905b81548152906001019060200180831161074457829003601f168201915b5050505050815260200160068201548152602001600782015481526020016008820160009054906101000a900460ff1615151515815250509050816040516020016107ac919061154a565b604051602081830303815290604052805190602001208160e00181815250507f1f62ef54c32aa4fd9e4fbbe7531ddf405a6c5e57ca3b3f536959bc49146397b43360016040516107fd92919061188a565b60405180910390a15050565b60008060003373ffffffffffffffffffffffffffffffffffffffff1673ffffffffffffffffffffffffffffffffffffffff1681526020019081526020016000206040518061012001604052908160008201805461086590611590565b80601f016020809104026020016040519081016040528092919081815260200182805461089190611590565b80156108de5780601f106108b3576101008083540402835291602001916108de565b820191906000526020600020905b8154815290600101906020018083116108c157829003601f168201915b505050505081526020016001820160009054906101000a90046fffffffffffffffffffffffffffffffff166fffffffffffffffffffffffffffffffff166fffffffffffffffffffffffffffffffff16815260200160028201805461094190611590565b80601f016020809104026020016040519081016040528092919081815260200182805461096d90611590565b80156109ba5780601f1061098f576101008083540402835291602001916109ba565b820191906000526020600020905b81548152906001019060200180831161099d57829003601f168201915b505050505081526020016003820180546109d390611590565b80601f01602080910402602001604051908101604052809291908181526020018280546109ff90611590565b8015610a4c5780601f10610a2157610100808354040283529160200191610a4c565b820191906000526020600020905b815481529060010190602001808311610a2f57829003601f168201915b50505050508152602001600482018054610a6590611590565b80601f0160208091040260200160405190810160405280929190818152602001828054610a9190611590565b8015610ade5780601f10610ab357610100808354040283529160200191610ade565b820191906000526020600020905b815481529060010190602001808311610ac157829003601f168201915b50505050508152602001600582018054610af790611590565b80601f0160208091040260200160405190810160405280929190818152602001828054610b2390611590565b8015610b705780601f10610b4557610100808354040283529160200191610b70565b820191906000526020600020905b815481529060010190602001808311610b5357829003601f168201915b5050505050815260200160068201548152602001600782015481526020016008820160009054906101000a900460ff161515151581525050905060008161010001518015610be7575083604051602001610bca919061154a565b604051602081830303815290604052805190602001208260c00151145b8015610c1c575082604051602001610bff919061154a565b604051602081830303815290604052805190602001208260e00151145b90507f453ba03571d7814d12083366887645536f834b7197f249a9153c32e85955d5a33382604051610c4f92919061188a565b60405180910390a150505050565b6000806000803373ffffffffffffffffffffffffffffffffffffffff1673ffffffffffffffffffffffffffffffffffffffff16815260200190815260200160002060405180610120016040529081600082018054610cba90611590565b80601f0160208091040260200160405190810160405280929190818152602001828054610ce690611590565b8015610d335780601f10610d0857610100808354040283529160200191610d33565b820191906000526020600020905b815481529060010190602001808311610d1657829003601f168201915b505050505081526020016001820160009054906101000a90046fffffffffffffffffffffffffffffffff166fffffffffffffffffffffffffffffffff166fffffffffffffffffffffffffffffffff168152602001600282018054610d9690611590565b80601f0160208091040260200160405190810160405280929190818152602001828054610dc290611590565b8015610e0f5780601f10610de457610100808354040283529160200191610e0f565b820191906000526020600020905b815481529060010190602001808311610df257829003601f168201915b50505050508152602001600382018054610e2890611590565b80601f0160208091040260200160405190810160405280929190818152602001828054610e5490611590565b8015610ea15780601f10610e7657610100808354040283529160200191610ea1565b820191906000526020600020905b815481529060010190602001808311610e8457829003601f168201915b50505050508152602001600482018054610eba90611590565b80601f0160208091040260200160405190810160405280929190818152602001828054610ee690611590565b8015610f335780601f10610f0857610100808354040283529160200191610f33565b820191906000526020600020905b815481529060010190602001808311610f1657829003601f168201915b50505050508152602001600582018054610f4c90611590565b80601f0160208091040260200160405190810160405280929190818152602001828054610f7890611590565b8015610fc55780601f10610f9a57610100808354040283529160200191610fc5565b820191906000526020600020905b815481529060010190602001808311610fa857829003601f168201915b5050505050815260200160068201548152602001600782015481526020016008820160009054906101000a900460ff16151515158152505090507f515a3dc8a0a14b849f9fe0b7d5911ca8ed453151a8699b329062708618593a943382610100015160405161103592919061188a565b60405180910390a180610100015191505090565b6000604051905090565b600080fd5b600080fd5b600080fd5b600080fd5b6000601f19601f8301169050919050565b7f4e487b7100000000000000000000000000000000000000000000000000000000600052604160045260246000fd5b6110b082611067565b810181811067ffffffffffffffff821117156110cf576110ce611078565b5b80604052505050565b60006110e2611049565b90506110ee82826110a7565b919050565b600067ffffffffffffffff82111561110e5761110d611078565b5b61111782611067565b9050602081019050919050565b82818337600083830152505050565b6000611146611141846110f3565b6110d8565b90508281526020810184848401111561116257611161611062565b5b61116d848285611124565b509392505050565b600082601f83011261118a5761118961105d565b5b813561119a848260208601611133565b91505092915050565b60006fffffffffffffffffffffffffffffffff82169050919050565b6111c8816111a3565b81146111d357600080fd5b50565b6000813590506111e5816111bf565b92915050565b600080600080600080600080610100898b03121561120c5761120b611053565b5b600089013567ffffffffffffffff81111561122a57611229611058565b5b6112368b828c01611175565b98505060206112478b828c016111d6565b975050604089013567ffffffffffffffff81111561126857611267611058565b5b6112748b828c01611175565b965050606089013567ffffffffffffffff81111561129557611294611058565b5b6112a18b828c01611175565b955050608089013567ffffffffffffffff8111156112c2576112c1611058565b5b6112ce8b828c01611175565b94505060a089013567ffffffffffffffff8111156112ef576112ee611058565b5b6112fb8b828c01611175565b93505060c089013567ffffffffffffffff81111561131c5761131b611058565b5b6113288b828c01611175565b92505060e089013567ffffffffffffffff81111561134957611348611058565b5b6113558b828c01611175565b9150509295985092959890939650565b60006020828403121561137b5761137a611053565b5b600082013567ffffffffffffffff81111561139957611398611058565b5b6113a584828501611175565b91505092915050565b600080604083850312156113c5576113c4611053565b5b600083013567ffffffffffffffff8111156113e3576113e2611058565b5b6113ef85828601611175565b925050602083013567ffffffffffffffff8111156114105761140f611058565b5b61141c85828601611175565b9150509250929050565b60008115159050919050565b61143b81611426565b82525050565b60006020820190506114566000830184611432565b92915050565b600082825260208201905092915050565b7f5573657220616c72656164792065786973747300000000000000000000000000600082015250565b60006114a360138361145c565b91506114ae8261146d565b602082019050919050565b600060208201905081810360008301526114d281611496565b9050919050565b600081519050919050565b600081905092915050565b60005b8381101561150d5780820151818401526020810190506114f2565b60008484015250505050565b6000611524826114d9565b61152e81856114e4565b935061153e8185602086016114ef565b80840191505092915050565b60006115568284611519565b915081905092915050565b7f4e487b7100000000000000000000000000000000000000000000000000000000600052602260045260246000fd5b600060028204905060018216806115a857607f821691505b6020821081036115bb576115ba611561565b5b50919050565b60008190508160005260206000209050919050565b60006020601f8301049050919050565b600082821b905092915050565b6000600883026116237fffffffffffffffffffffffffffffffffffffffffffffffffffffffffffffffff826115e6565b61162d86836115e6565b95508019841693508086168417925050509392505050565b6000819050919050565b6000819050919050565b600061167461166f61166a84611645565b61164f565b611645565b9050919050565b6000819050919050565b61168e83611659565b6116a261169a8261167b565b8484546115f3565b825550505050565b600090565b6116b76116aa565b6116c2818484611685565b505050565b5b818110156116e6576116db6000826116af565b6001810190506116c8565b5050565b601f82111561172b576116fc816115c1565b611705846115d6565b81016020851015611714578190505b611728611720856115d6565b8301826116c7565b50505b505050565b600082821c905092915050565b600061174e60001984600802611730565b1980831691505092915050565b6000611767838361173d565b9150826002028217905092915050565b611780826114d9565b67ffffffffffffffff81111561179957611798611078565b5b6117a38254611590565b6117ae8282856116ea565b600060209050601f8311600181146117e157600084156117cf578287015190505b6117d9858261175b565b865550611841565b601f1984166117ef866115c1565b60005b82811015611817578489015182556001820191506020850194506020810190506117f2565b868310156118345784890151611830601f89168261173d565b8355505b6001600288020188555050505b505050505050565b600073ffffffffffffffffffffffffffffffffffffffff82169050919050565b600061187482611849565b9050919050565b61188481611869565b82525050565b600060408201905061189f600083018561187b565b6118ac6020830184611432565b9392505050565b7f5573657220646f6573206e6f7420657869737473000000000000000000000000600082015250565b60006118e960148361145c565b91506118f4826118b3565b602082019050919050565b60006020820190508181036000830152611918816118dc565b905091905056fea2646970667358221220f2b763ea1d327194fd0c930564fc71603cf40ddd98f1866513dbf12d76a7bd4b64736f6c63430008180033",
  "linkReferences": {},
  "deployedLinkReferences": {}
}