{
  "_format": "hh-sol-artifact-1",
  "contractName": "Donate",
  "sourceName": "contracts/donate.sol",
  "abi": [
    {
      "anonymous": false,
      "inputs": [
        {
          "indexed": true,
          "internalType": "uint256",
          "name": "entryId",
          "type": "uint256"
        }
      ],
      "name": "EntryStored",
      "type": "event"
    },
    {
      "inputs": [
        {
          "internalType": "uint256",
          "name": "",
          "type": "uint256"
        }
      ],
      "name": "donateEntries",
      "outputs": [
        {
          "internalType": "string",
          "name": "full_name",
          "type": "string"
        },
        {
          "internalType": "uint256",
          "name": "amount",
          "type": "uint256"
        },
        {
          "internalType": "string",
          "name": "local_address",
          "type": "string"
        },
        {
          "internalType": "string",
          "name": "pan_card",
          "type": "string"
        },
        {
          "internalType": "string",
          "name": "email",
          "type": "string"
        },
        {
          "internalType": "uint128",
          "name": "phone_number",
          "type": "uint128"
        }
      ],
      "stateMutability": "view",
      "type": "function"
    },
    {
      "inputs": [],
      "name": "entryCount",
      "outputs": [
        {
          "internalType": "uint256",
          "name": "",
          "type": "uint256"
        }
      ],
      "stateMutability": "view",
      "type": "function"
    },
    {
      "inputs": [
        {
          "internalType": "uint256",
          "name": "_entryId",
          "type": "uint256"
        }
      ],
      "name": "getValues",
      "outputs": [
        {
          "internalType": "string",
          "name": "",
          "type": "string"
        },
        {
          "internalType": "uint256",
          "name": "",
          "type": "uint256"
        },
        {
          "internalType": "string",
          "name": "",
          "type": "string"
        },
        {
          "internalType": "string",
          "name": "",
          "type": "string"
        },
        {
          "internalType": "string",
          "name": "",
          "type": "string"
        },
        {
          "internalType": "uint128",
          "name": "",
          "type": "uint128"
        }
      ],
      "stateMutability": "view",
      "type": "function"
    },
    {
      "inputs": [
        {
          "internalType": "string",
          "name": "_full_name",
          "type": "string"
        },
        {
          "internalType": "uint256",
          "name": "_amount",
          "type": "uint256"
        },
        {
          "internalType": "string",
          "name": "_local_address",
          "type": "string"
        },
        {
          "internalType": "string",
          "name": "_pan_card",
          "type": "string"
        },
        {
          "internalType": "string",
          "name": "_email",
          "type": "string"
        },
        {
          "internalType": "uint128",
          "name": "_phone_number",
          "type": "uint128"
        }
      ],
      "name": "storeValues",
      "outputs": [],
      "stateMutability": "nonpayable",
      "type": "function"
    }
  ],
  "bytecode": "0x608060405234801561001057600080fd5b50610f6b806100206000396000f3fe608060405234801561001057600080fd5b506004361061004c5760003560e01c80630cbb0f831461005157806356ff7d7f1461006f578063aa05acaf1461008b578063b29e522c146100c0575b600080fd5b6100596100f5565b60405161006691906107c2565b60405180910390f35b610089600480360381019061008491906109ab565b6100fb565b005b6100a560048036038101906100a09190610aa8565b610245565b6040516100b796959493929190610b63565b60405180910390f35b6100da60048036038101906100d59190610aa8565b6104bd565b6040516100ec96959493929190610b63565b60405180910390f35b60015481565b600060015490506040518060c00160405280888152602001878152602001868152602001858152602001848152602001836fffffffffffffffffffffffffffffffff1681525060008083815260200190815260200160002060008201518160000190816101689190610dec565b506020820151816001015560408201518160020190816101889190610dec565b50606082015181600301908161019e9190610dec565b5060808201518160040190816101b49190610dec565b5060a08201518160050160006101000a8154816fffffffffffffffffffffffffffffffff02191690836fffffffffffffffffffffffffffffffff1602179055509050506001600081548092919061020a90610eed565b9190505550807f57a8a8eb974ffed2f4b03ad1f854132fa31f7cf742885100632cdf91c26c4bb760405160405180910390a250505050505050565b600060205280600052604060002060009150905080600001805461026890610c0f565b80601f016020809104026020016040519081016040528092919081815260200182805461029490610c0f565b80156102e15780601f106102b6576101008083540402835291602001916102e1565b820191906000526020600020905b8154815290600101906020018083116102c457829003601f168201915b5050505050908060010154908060020180546102fc90610c0f565b80601f016020809104026020016040519081016040528092919081815260200182805461032890610c0f565b80156103755780601f1061034a57610100808354040283529160200191610375565b820191906000526020600020905b81548152906001019060200180831161035857829003601f168201915b50505050509080600301805461038a90610c0f565b80601f01602080910402602001604051908101604052809291908181526020018280546103b690610c0f565b80156104035780601f106103d857610100808354040283529160200191610403565b820191906000526020600020905b8154815290600101906020018083116103e657829003601f168201915b50505050509080600401805461041890610c0f565b80601f016020809104026020016040519081016040528092919081815260200182805461044490610c0f565b80156104915780601f1061046657610100808354040283529160200191610491565b820191906000526020600020905b81548152906001019060200180831161047457829003601f168201915b5050505050908060050160009054906101000a90046fffffffffffffffffffffffffffffffff16905086565b6060600060608060606000806000888152602001908152602001600020600001600080898152602001908152602001600020600101546000808a81526020019081526020016000206002016000808b81526020019081526020016000206003016000808c81526020019081526020016000206004016000808d815260200190815260200160002060050160009054906101000a90046fffffffffffffffffffffffffffffffff1685805461057090610c0f565b80601f016020809104026020016040519081016040528092919081815260200182805461059c90610c0f565b80156105e95780601f106105be576101008083540402835291602001916105e9565b820191906000526020600020905b8154815290600101906020018083116105cc57829003601f168201915b505050505095508380546105fc90610c0f565b80601f016020809104026020016040519081016040528092919081815260200182805461062890610c0f565b80156106755780601f1061064a57610100808354040283529160200191610675565b820191906000526020600020905b81548152906001019060200180831161065857829003601f168201915b5050505050935082805461068890610c0f565b80601f01602080910402602001604051908101604052809291908181526020018280546106b490610c0f565b80156107015780601f106106d657610100808354040283529160200191610701565b820191906000526020600020905b8154815290600101906020018083116106e457829003601f168201915b5050505050925081805461071490610c0f565b80601f016020809104026020016040519081016040528092919081815260200182805461074090610c0f565b801561078d5780601f106107625761010080835404028352916020019161078d565b820191906000526020600020905b81548152906001019060200180831161077057829003601f168201915b5050505050915095509550955095509550955091939550919395565b6000819050919050565b6107bc816107a9565b82525050565b60006020820190506107d760008301846107b3565b92915050565b6000604051905090565b600080fd5b600080fd5b600080fd5b600080fd5b6000601f19601f8301169050919050565b7f4e487b7100000000000000000000000000000000000000000000000000000000600052604160045260246000fd5b610844826107fb565b810181811067ffffffffffffffff821117156108635761086261080c565b5b80604052505050565b60006108766107dd565b9050610882828261083b565b919050565b600067ffffffffffffffff8211156108a2576108a161080c565b5b6108ab826107fb565b9050602081019050919050565b82818337600083830152505050565b60006108da6108d584610887565b61086c565b9050828152602081018484840111156108f6576108f56107f6565b5b6109018482856108b8565b509392505050565b600082601f83011261091e5761091d6107f1565b5b813561092e8482602086016108c7565b91505092915050565b610940816107a9565b811461094b57600080fd5b50565b60008135905061095d81610937565b92915050565b60006fffffffffffffffffffffffffffffffff82169050919050565b61098881610963565b811461099357600080fd5b50565b6000813590506109a58161097f565b92915050565b60008060008060008060c087890312156109c8576109c76107e7565b5b600087013567ffffffffffffffff8111156109e6576109e56107ec565b5b6109f289828a01610909565b9650506020610a0389828a0161094e565b955050604087013567ffffffffffffffff811115610a2457610a236107ec565b5b610a3089828a01610909565b945050606087013567ffffffffffffffff811115610a5157610a506107ec565b5b610a5d89828a01610909565b935050608087013567ffffffffffffffff811115610a7e57610a7d6107ec565b5b610a8a89828a01610909565b92505060a0610a9b89828a01610996565b9150509295509295509295565b600060208284031215610abe57610abd6107e7565b5b6000610acc8482850161094e565b91505092915050565b600081519050919050565b600082825260208201905092915050565b60005b83811015610b0f578082015181840152602081019050610af4565b60008484015250505050565b6000610b2682610ad5565b610b308185610ae0565b9350610b40818560208601610af1565b610b49816107fb565b840191505092915050565b610b5d81610963565b82525050565b600060c0820190508181036000830152610b7d8189610b1b565b9050610b8c60208301886107b3565b8181036040830152610b9e8187610b1b565b90508181036060830152610bb28186610b1b565b90508181036080830152610bc68185610b1b565b9050610bd560a0830184610b54565b979650505050505050565b7f4e487b7100000000000000000000000000000000000000000000000000000000600052602260045260246000fd5b60006002820490506001821680610c2757607f821691505b602082108103610c3a57610c39610be0565b5b50919050565b60008190508160005260206000209050919050565b60006020601f8301049050919050565b600082821b905092915050565b600060088302610ca27fffffffffffffffffffffffffffffffffffffffffffffffffffffffffffffffff82610c65565b610cac8683610c65565b95508019841693508086168417925050509392505050565b6000819050919050565b6000610ce9610ce4610cdf846107a9565b610cc4565b6107a9565b9050919050565b6000819050919050565b610d0383610cce565b610d17610d0f82610cf0565b848454610c72565b825550505050565b600090565b610d2c610d1f565b610d37818484610cfa565b505050565b5b81811015610d5b57610d50600082610d24565b600181019050610d3d565b5050565b601f821115610da057610d7181610c40565b610d7a84610c55565b81016020851015610d89578190505b610d9d610d9585610c55565b830182610d3c565b50505b505050565b600082821c905092915050565b6000610dc360001984600802610da5565b1980831691505092915050565b6000610ddc8383610db2565b9150826002028217905092915050565b610df582610ad5565b67ffffffffffffffff811115610e0e57610e0d61080c565b5b610e188254610c0f565b610e23828285610d5f565b600060209050601f831160018114610e565760008415610e44578287015190505b610e4e8582610dd0565b865550610eb6565b601f198416610e6486610c40565b60005b82811015610e8c57848901518255600182019150602085019450602081019050610e67565b86831015610ea95784890151610ea5601f891682610db2565b8355505b6001600288020188555050505b505050505050565b7f4e487b7100000000000000000000000000000000000000000000000000000000600052601160045260246000fd5b6000610ef8826107a9565b91507fffffffffffffffffffffffffffffffffffffffffffffffffffffffffffffffff8203610f2a57610f29610ebe565b5b60018201905091905056fea264697066735822122023e688f8d0ea74f4f03814aa2cb2032b04070185c26a519f3ff56cb0e8633efb64736f6c63430008180033",
  "linkReferences": {},
  "deployedLinkReferences": {}
}