{
  "_format": "hh-sol-artifact-1",
  "contractName": "Login",
  "sourceName": "contracts/login.sol",
  "abi": [
    {
      "anonymous": false,
      "inputs": [
        {
          "indexed": false,
          "internalType": "address",
          "name": "userAddress",
          "type": "address"
        },
        {
          "indexed": false,
          "internalType": "bool",
          "name": "isAuthenticate",
          "type": "bool"
        }
      ],
      "name": "UserAuthenticate",
      "type": "event"
    },
    {
      "anonymous": false,
      "inputs": [
        {
          "indexed": false,
          "internalType": "address",
          "name": "userAddress",
          "type": "address"
        },
        {
          "indexed": false,
          "internalType": "bool",
          "name": "isExists",
          "type": "bool"
        }
      ],
      "name": "UserExists",
      "type": "event"
    },
    {
      "anonymous": false,
      "inputs": [
        {
          "indexed": false,
          "internalType": "address",
          "name": "userAddress",
          "type": "address"
        },
        {
          "indexed": false,
          "internalType": "bool",
          "name": "userRegistered",
          "type": "bool"
        }
      ],
      "name": "UserRegistered",
      "type": "event"
    },
    {
      "anonymous": false,
      "inputs": [
        {
          "indexed": false,
          "internalType": "address",
          "name": "userAddress",
          "type": "address"
        },
        {
          "indexed": false,
          "internalType": "enum Login.Role",
          "name": "isUserRole",
          "type": "uint8"
        }
      ],
      "name": "UserRole",
      "type": "event"
    },
    {
      "anonymous": false,
      "inputs": [
        {
          "indexed": false,
          "internalType": "address",
          "name": "userAddress",
          "type": "address"
        },
        {
          "indexed": false,
          "internalType": "bool",
          "name": "isupdated",
          "type": "bool"
        }
      ],
      "name": "UserUpdatePassword",
      "type": "event"
    },
    {
      "inputs": [
        {
          "internalType": "string",
          "name": "_username",
          "type": "string"
        },
        {
          "internalType": "string",
          "name": "_password",
          "type": "string"
        }
      ],
      "name": "authenticateUser",
      "outputs": [],
      "stateMutability": "nonpayable",
      "type": "function"
    },
    {
      "inputs": [],
      "name": "getUserRole",
      "outputs": [],
      "stateMutability": "nonpayable",
      "type": "function"
    },
    {
      "inputs": [
        {
          "internalType": "string",
          "name": "_name",
          "type": "string"
        },
        {
          "internalType": "uint128",
          "name": "_mobile",
          "type": "uint128"
        },
        {
          "internalType": "string",
          "name": "_country",
          "type": "string"
        },
        {
          "internalType": "string",
          "name": "_city",
          "type": "string"
        },
        {
          "internalType": "string",
          "name": "_email",
          "type": "string"
        },
        {
          "internalType": "string",
          "name": "_address",
          "type": "string"
        },
        {
          "internalType": "string",
          "name": "_username",
          "type": "string"
        },
        {
          "internalType": "string",
          "name": "_password",
          "type": "string"
        },
        {
          "internalType": "enum Login.Role",
          "name": "_role",
          "type": "uint8"
        }
      ],
      "name": "registerUser",
      "outputs": [],
      "stateMutability": "nonpayable",
      "type": "function"
    },
    {
      "inputs": [
        {
          "internalType": "string",
          "name": "newPassword",
          "type": "string"
        }
      ],
      "name": "updatePassword",
      "outputs": [],
      "stateMutability": "nonpayable",
      "type": "function"
    },
    {
      "inputs": [],
      "name": "userExists",
      "outputs": [
        {
          "internalType": "bool",
          "name": "",
          "type": "bool"
        }
      ],
      "stateMutability": "nonpayable",
      "type": "function"
    }
  ],
  "bytecode": "0x608060405234801561001057600080fd5b50611c55806100206000396000f3fe608060405234801561001057600080fd5b50600436106100575760003560e01c80634afb08a61461005c578063516a543514610078578063a9c07ae114610094578063bf04a10d146100b0578063eae6d4da146100ba575b600080fd5b610076600480360381019061007191906113ca565b6100d8565b005b610092600480360381019061008d9190611413565b6105b0565b005b6100ae60048036038101906100a991906114f8565b610a3f565b005b6100b8610d32565b005b6100c2610e49565b6040516100cf91906116a1565b60405180910390f35b6000803373ffffffffffffffffffffffffffffffffffffffff1673ffffffffffffffffffffffffffffffffffffffff16815260200190815260200160002060080160009054906101000a900460ff16610166576040517f08c379a000000000000000000000000000000000000000000000000000000000815260040161015d90611719565b60405180910390fd5b60008060003373ffffffffffffffffffffffffffffffffffffffff1673ffffffffffffffffffffffffffffffffffffffff168152602001908152602001600020604051806101400160405290816000820180546101c290611768565b80601f01602080910402602001604051908101604052809291908181526020018280546101ee90611768565b801561023b5780601f106102105761010080835404028352916020019161023b565b820191906000526020600020905b81548152906001019060200180831161021e57829003601f168201915b505050505081526020016001820160009054906101000a90046fffffffffffffffffffffffffffffffff166fffffffffffffffffffffffffffffffff166fffffffffffffffffffffffffffffffff16815260200160028201805461029e90611768565b80601f01602080910402602001604051908101604052809291908181526020018280546102ca90611768565b80156103175780601f106102ec57610100808354040283529160200191610317565b820191906000526020600020905b8154815290600101906020018083116102fa57829003601f168201915b5050505050815260200160038201805461033090611768565b80601f016020809104026020016040519081016040528092919081815260200182805461035c90611768565b80156103a95780601f1061037e576101008083540402835291602001916103a9565b820191906000526020600020905b81548152906001019060200180831161038c57829003601f168201915b505050505081526020016004820180546103c290611768565b80601f01602080910402602001604051908101604052809291908181526020018280546103ee90611768565b801561043b5780601f106104105761010080835404028352916020019161043b565b820191906000526020600020905b81548152906001019060200180831161041e57829003601f168201915b5050505050815260200160058201805461045490611768565b80601f016020809104026020016040519081016040528092919081815260200182805461048090611768565b80156104cd5780601f106104a2576101008083540402835291602001916104cd565b820191906000526020600020905b8154815290600101906020018083116104b057829003601f168201915b5050505050815260200160068201548152602001600782015481526020016008820160009054906101000a900460ff161515151581526020016008820160019054906101000a900460ff16600381111561052a57610529611799565b5b600381111561053c5761053b611799565b5b815250509050816040516020016105539190611839565b604051602081830303815290604052805190602001208160e00181815250507f1f62ef54c32aa4fd9e4fbbe7531ddf405a6c5e57ca3b3f536959bc49146397b43360016040516105a4929190611891565b60405180910390a15050565b60008060003373ffffffffffffffffffffffffffffffffffffffff1673ffffffffffffffffffffffffffffffffffffffff1681526020019081526020016000206040518061014001604052908160008201805461060c90611768565b80601f016020809104026020016040519081016040528092919081815260200182805461063890611768565b80156106855780601f1061065a57610100808354040283529160200191610685565b820191906000526020600020905b81548152906001019060200180831161066857829003601f168201915b505050505081526020016001820160009054906101000a90046fffffffffffffffffffffffffffffffff166fffffffffffffffffffffffffffffffff166fffffffffffffffffffffffffffffffff1681526020016002820180546106e890611768565b80601f016020809104026020016040519081016040528092919081815260200182805461071490611768565b80156107615780601f1061073657610100808354040283529160200191610761565b820191906000526020600020905b81548152906001019060200180831161074457829003601f168201915b5050505050815260200160038201805461077a90611768565b80601f01602080910402602001604051908101604052809291908181526020018280546107a690611768565b80156107f35780601f106107c8576101008083540402835291602001916107f3565b820191906000526020600020905b8154815290600101906020018083116107d657829003601f168201915b5050505050815260200160048201805461080c90611768565b80601f016020809104026020016040519081016040528092919081815260200182805461083890611768565b80156108855780601f1061085a57610100808354040283529160200191610885565b820191906000526020600020905b81548152906001019060200180831161086857829003601f168201915b5050505050815260200160058201805461089e90611768565b80601f01602080910402602001604051908101604052809291908181526020018280546108ca90611768565b80156109175780601f106108ec57610100808354040283529160200191610917565b820191906000526020600020905b8154815290600101906020018083116108fa57829003601f168201915b5050505050815260200160068201548152602001600782015481526020016008820160009054906101000a900460ff161515151581526020016008820160019054906101000a900460ff16600381111561097457610973611799565b5b600381111561098657610985611799565b5b815250509050600081610100015180156109c95750836040516020016109ac9190611839565b604051602081830303815290604052805190602001208260c00151145b80156109fe5750826040516020016109e19190611839565b604051602081830303815290604052805190602001208260e00151145b90507f453ba03571d7814d12083366887645536f834b7197f249a9153c32e85955d5a33382604051610a31929190611891565b60405180910390a150505050565b6000803373ffffffffffffffffffffffffffffffffffffffff1673ffffffffffffffffffffffffffffffffffffffff16815260200190815260200160002060080160009054906101000a900460ff1615610ace576040517f08c379a0000000000000000000000000000000000000000000000000000000008152600401610ac590611906565b60405180910390fd5b600083604051602001610ae19190611839565b604051602081830303815290604052805190602001209050600083604051602001610b0c9190611839565b6040516020818303038152906040528051906020012090506040518061014001604052808c81526020018b6fffffffffffffffffffffffffffffffff1681526020018a8152602001898152602001888152602001878152602001838152602001828152602001600115158152602001846003811115610b8e57610b8d611799565b5b8152506000803373ffffffffffffffffffffffffffffffffffffffff1673ffffffffffffffffffffffffffffffffffffffff1681526020019081526020016000206000820151816000019081610be49190611adc565b5060208201518160010160006101000a8154816fffffffffffffffffffffffffffffffff02191690836fffffffffffffffffffffffffffffffff1602179055506040820151816002019081610c399190611adc565b506060820151816003019081610c4f9190611adc565b506080820151816004019081610c659190611adc565b5060a0820151816005019081610c7b9190611adc565b5060c0820151816006015560e082015181600701556101008201518160080160006101000a81548160ff0219169083151502179055506101208201518160080160016101000a81548160ff02191690836003811115610cdd57610cdc611799565b5b02179055509050507f28a24a60e275c9be5babc23ecefd3240b1fcd56ef4d3fe4818437200b55ae5ff33610d0f610e49565b604051610d1d929190611891565b60405180910390a15050505050505050505050565b6000803373ffffffffffffffffffffffffffffffffffffffff1673ffffffffffffffffffffffffffffffffffffffff16815260200190815260200160002060080160009054906101000a900460ff16610dc0576040517f08c379a0000000000000000000000000000000000000000000000000000000008152600401610db790611719565b60405180910390fd5b7fd3cec179c7ead513b2b887c7fdf288785be2e11c0c25b69f96035a9e4301f0d0336000803373ffffffffffffffffffffffffffffffffffffffff1673ffffffffffffffffffffffffffffffffffffffff16815260200190815260200160002060080160019054906101000a900460ff16604051610e3f929190611bf6565b60405180910390a1565b6000806000803373ffffffffffffffffffffffffffffffffffffffff1673ffffffffffffffffffffffffffffffffffffffff16815260200190815260200160002060405180610140016040529081600082018054610ea690611768565b80601f0160208091040260200160405190810160405280929190818152602001828054610ed290611768565b8015610f1f5780601f10610ef457610100808354040283529160200191610f1f565b820191906000526020600020905b815481529060010190602001808311610f0257829003601f168201915b505050505081526020016001820160009054906101000a90046fffffffffffffffffffffffffffffffff166fffffffffffffffffffffffffffffffff166fffffffffffffffffffffffffffffffff168152602001600282018054610f8290611768565b80601f0160208091040260200160405190810160405280929190818152602001828054610fae90611768565b8015610ffb5780601f10610fd057610100808354040283529160200191610ffb565b820191906000526020600020905b815481529060010190602001808311610fde57829003601f168201915b5050505050815260200160038201805461101490611768565b80601f016020809104026020016040519081016040528092919081815260200182805461104090611768565b801561108d5780601f106110625761010080835404028352916020019161108d565b820191906000526020600020905b81548152906001019060200180831161107057829003601f168201915b505050505081526020016004820180546110a690611768565b80601f01602080910402602001604051908101604052809291908181526020018280546110d290611768565b801561111f5780601f106110f45761010080835404028352916020019161111f565b820191906000526020600020905b81548152906001019060200180831161110257829003601f168201915b5050505050815260200160058201805461113890611768565b80601f016020809104026020016040519081016040528092919081815260200182805461116490611768565b80156111b15780601f10611186576101008083540402835291602001916111b1565b820191906000526020600020905b81548152906001019060200180831161119457829003601f168201915b5050505050815260200160068201548152602001600782015481526020016008820160009054906101000a900460ff161515151581526020016008820160019054906101000a900460ff16600381111561120e5761120d611799565b5b60038111156112205761121f611799565b5b8152505090507f515a3dc8a0a14b849f9fe0b7d5911ca8ed453151a8699b329062708618593a943382610100015160405161125c929190611891565b60405180910390a180610100015191505090565b6000604051905090565b600080fd5b600080fd5b600080fd5b600080fd5b6000601f19601f8301169050919050565b7f4e487b7100000000000000000000000000000000000000000000000000000000600052604160045260246000fd5b6112d78261128e565b810181811067ffffffffffffffff821117156112f6576112f561129f565b5b80604052505050565b6000611309611270565b905061131582826112ce565b919050565b600067ffffffffffffffff8211156113355761133461129f565b5b61133e8261128e565b9050602081019050919050565b82818337600083830152505050565b600061136d6113688461131a565b6112ff565b90508281526020810184848401111561138957611388611289565b5b61139484828561134b565b509392505050565b600082601f8301126113b1576113b0611284565b5b81356113c184826020860161135a565b91505092915050565b6000602082840312156113e0576113df61127a565b5b600082013567ffffffffffffffff8111156113fe576113fd61127f565b5b61140a8482850161139c565b91505092915050565b6000806040838503121561142a5761142961127a565b5b600083013567ffffffffffffffff8111156114485761144761127f565b5b6114548582860161139c565b925050602083013567ffffffffffffffff8111156114755761147461127f565b5b6114818582860161139c565b9150509250929050565b60006fffffffffffffffffffffffffffffffff82169050919050565b6114b08161148b565b81146114bb57600080fd5b50565b6000813590506114cd816114a7565b92915050565b600481106114e057600080fd5b50565b6000813590506114f2816114d3565b92915050565b60008060008060008060008060006101208a8c03121561151b5761151a61127a565b5b60008a013567ffffffffffffffff8111156115395761153861127f565b5b6115458c828d0161139c565b99505060206115568c828d016114be565b98505060408a013567ffffffffffffffff8111156115775761157661127f565b5b6115838c828d0161139c565b97505060608a013567ffffffffffffffff8111156115a4576115a361127f565b5b6115b08c828d0161139c565b96505060808a013567ffffffffffffffff8111156115d1576115d061127f565b5b6115dd8c828d0161139c565b95505060a08a013567ffffffffffffffff8111156115fe576115fd61127f565b5b61160a8c828d0161139c565b94505060c08a013567ffffffffffffffff81111561162b5761162a61127f565b5b6116378c828d0161139c565b93505060e08a013567ffffffffffffffff8111156116585761165761127f565b5b6116648c828d0161139c565b9250506101006116768c828d016114e3565b9150509295985092959850929598565b60008115159050919050565b61169b81611686565b82525050565b60006020820190506116b66000830184611692565b92915050565b600082825260208201905092915050565b7f5573657220646f6573206e6f7420657869737473000000000000000000000000600082015250565b60006117036014836116bc565b915061170e826116cd565b602082019050919050565b60006020820190508181036000830152611732816116f6565b9050919050565b7f4e487b7100000000000000000000000000000000000000000000000000000000600052602260045260246000fd5b6000600282049050600182168061178057607f821691505b60208210810361179357611792611739565b5b50919050565b7f4e487b7100000000000000000000000000000000000000000000000000000000600052602160045260246000fd5b600081519050919050565b600081905092915050565b60005b838110156117fc5780820151818401526020810190506117e1565b60008484015250505050565b6000611813826117c8565b61181d81856117d3565b935061182d8185602086016117de565b80840191505092915050565b60006118458284611808565b915081905092915050565b600073ffffffffffffffffffffffffffffffffffffffff82169050919050565b600061187b82611850565b9050919050565b61188b81611870565b82525050565b60006040820190506118a66000830185611882565b6118b36020830184611692565b9392505050565b7f5573657220616c72656164792065786973747300000000000000000000000000600082015250565b60006118f06013836116bc565b91506118fb826118ba565b602082019050919050565b6000602082019050818103600083015261191f816118e3565b9050919050565b60008190508160005260206000209050919050565b60006020601f8301049050919050565b600082821b905092915050565b6000600883026119887fffffffffffffffffffffffffffffffffffffffffffffffffffffffffffffffff8261194b565b611992868361194b565b95508019841693508086168417925050509392505050565b6000819050919050565b6000819050919050565b60006119d96119d46119cf846119aa565b6119b4565b6119aa565b9050919050565b6000819050919050565b6119f3836119be565b611a076119ff826119e0565b848454611958565b825550505050565b600090565b611a1c611a0f565b611a278184846119ea565b505050565b5b81811015611a4b57611a40600082611a14565b600181019050611a2d565b5050565b601f821115611a9057611a6181611926565b611a6a8461193b565b81016020851015611a79578190505b611a8d611a858561193b565b830182611a2c565b50505b505050565b600082821c905092915050565b6000611ab360001984600802611a95565b1980831691505092915050565b6000611acc8383611aa2565b9150826002028217905092915050565b611ae5826117c8565b67ffffffffffffffff811115611afe57611afd61129f565b5b611b088254611768565b611b13828285611a4f565b600060209050601f831160018114611b465760008415611b34578287015190505b611b3e8582611ac0565b865550611ba6565b601f198416611b5486611926565b60005b82811015611b7c57848901518255600182019150602085019450602081019050611b57565b86831015611b995784890151611b95601f891682611aa2565b8355505b6001600288020188555050505b505050505050565b60048110611bbf57611bbe611799565b5b50565b6000819050611bd082611bae565b919050565b6000611be082611bc2565b9050919050565b611bf081611bd5565b82525050565b6000604082019050611c0b6000830185611882565b611c186020830184611be7565b939250505056fea2646970667358221220331a97bc7405bb99f0adc17491350e54dc6dc469ecea25fa7b5b2a72489acf4b64736f6c63430008180033",
  "linkReferences": {},
  "deployedLinkReferences": {}
}